{
    "_format": "hh-sol-artifact-1",
    "contractName": "MintChickNFT",
    "sourceName": "contracts/MintChickNFT.sol",
    "abi": [
        {
            "inputs": [],
            "stateMutability": "payable",
            "type": "constructor"
        },
        {
            "anonymous": false,
            "inputs": [
                {
                    "indexed": true,
                    "internalType": "address",
                    "name": "owner",
                    "type": "address"
                },
                {
                    "indexed": true,
                    "internalType": "address",
                    "name": "approved",
                    "type": "address"
                },
                {
                    "indexed": true,
                    "internalType": "uint256",
                    "name": "tokenId",
                    "type": "uint256"
                }
            ],
            "name": "Approval",
            "type": "event"
        },
        {
            "anonymous": false,
            "inputs": [
                {
                    "indexed": true,
                    "internalType": "address",
                    "name": "owner",
                    "type": "address"
                },
                {
                    "indexed": true,
                    "internalType": "address",
                    "name": "operator",
                    "type": "address"
                },
                {
                    "indexed": false,
                    "internalType": "bool",
                    "name": "approved",
                    "type": "bool"
                }
            ],
            "name": "ApprovalForAll",
            "type": "event"
        },
        {
            "anonymous": false,
            "inputs": [
                {
                    "indexed": true,
                    "internalType": "address",
                    "name": "previousOwner",
                    "type": "address"
                },
                {
                    "indexed": true,
                    "internalType": "address",
                    "name": "newOwner",
                    "type": "address"
                }
            ],
            "name": "OwnershipTransferred",
            "type": "event"
        },
        {
            "anonymous": false,
            "inputs": [
                {
                    "indexed": true,
                    "internalType": "address",
                    "name": "from",
                    "type": "address"
                },
                {
                    "indexed": true,
                    "internalType": "address",
                    "name": "to",
                    "type": "address"
                },
                {
                    "indexed": true,
                    "internalType": "uint256",
                    "name": "tokenId",
                    "type": "uint256"
                }
            ],
            "name": "Transfer",
            "type": "event"
        },
        {
            "inputs": [
                {
                    "internalType": "address",
                    "name": "to",
                    "type": "address"
                },
                {
                    "internalType": "uint256",
                    "name": "tokenId",
                    "type": "uint256"
                }
            ],
            "name": "approve",
            "outputs": [],
            "stateMutability": "nonpayable",
            "type": "function"
        },
        {
            "inputs": [
                {
                    "internalType": "address",
                    "name": "owner",
                    "type": "address"
                }
            ],
            "name": "balanceOf",
            "outputs": [
                {
                    "internalType": "uint256",
                    "name": "",
                    "type": "uint256"
                }
            ],
            "stateMutability": "view",
            "type": "function"
        },
        {
            "inputs": [
                {
                    "internalType": "address payable",
                    "name": "newWithdrawWallet_",
                    "type": "address"
                }
            ],
            "name": "changeWithdrawWallet",
            "outputs": [],
            "stateMutability": "nonpayable",
            "type": "function"
        },
        {
            "inputs": [],
            "name": "deleteContract",
            "outputs": [],
            "stateMutability": "nonpayable",
            "type": "function"
        },
        {
            "inputs": [
                {
                    "internalType": "uint256",
                    "name": "tokenId",
                    "type": "uint256"
                }
            ],
            "name": "getApproved",
            "outputs": [
                {
                    "internalType": "address",
                    "name": "",
                    "type": "address"
                }
            ],
            "stateMutability": "view",
            "type": "function"
        },
        {
            "inputs": [
                {
                    "internalType": "address",
                    "name": "owner",
                    "type": "address"
                },
                {
                    "internalType": "address",
                    "name": "operator",
                    "type": "address"
                }
            ],
            "name": "isApprovedForAll",
            "outputs": [
                {
                    "internalType": "bool",
                    "name": "",
                    "type": "bool"
                }
            ],
            "stateMutability": "view",
            "type": "function"
        },
        {
            "inputs": [],
            "name": "isPublicMintEnabled",
            "outputs": [
                {
                    "internalType": "bool",
                    "name": "",
                    "type": "bool"
                }
            ],
            "stateMutability": "view",
            "type": "function"
        },
        {
            "inputs": [],
            "name": "maxPerWallet",
            "outputs": [
                {
                    "internalType": "uint16",
                    "name": "",
                    "type": "uint16"
                }
            ],
            "stateMutability": "view",
            "type": "function"
        },
        {
            "inputs": [],
            "name": "maxSupply",
            "outputs": [
                {
                    "internalType": "uint16",
                    "name": "",
                    "type": "uint16"
                }
            ],
            "stateMutability": "view",
            "type": "function"
        },
        {
            "inputs": [
                {
                    "internalType": "uint256",
                    "name": "quantity_",
                    "type": "uint256"
                }
            ],
            "name": "mint",
            "outputs": [],
            "stateMutability": "payable",
            "type": "function"
        },
        {
            "inputs": [],
            "name": "mintPrice",
            "outputs": [
                {
                    "internalType": "uint256",
                    "name": "",
                    "type": "uint256"
                }
            ],
            "stateMutability": "view",
            "type": "function"
        },
        {
            "inputs": [],
            "name": "name",
            "outputs": [
                {
                    "internalType": "string",
                    "name": "",
                    "type": "string"
                }
            ],
            "stateMutability": "view",
            "type": "function"
        },
        {
            "inputs": [],
            "name": "owner",
            "outputs": [
                {
                    "internalType": "address",
                    "name": "",
                    "type": "address"
                }
            ],
            "stateMutability": "view",
            "type": "function"
        },
        {
            "inputs": [
                {
                    "internalType": "uint256",
                    "name": "tokenId",
                    "type": "uint256"
                }
            ],
            "name": "ownerOf",
            "outputs": [
                {
                    "internalType": "address",
                    "name": "",
                    "type": "address"
                }
            ],
            "stateMutability": "view",
            "type": "function"
        },
        {
            "inputs": [],
            "name": "renounceOwnership",
            "outputs": [],
            "stateMutability": "nonpayable",
            "type": "function"
        },
        {
            "inputs": [
                {
                    "internalType": "address",
                    "name": "from",
                    "type": "address"
                },
                {
                    "internalType": "address",
                    "name": "to",
                    "type": "address"
                },
                {
                    "internalType": "uint256",
                    "name": "tokenId",
                    "type": "uint256"
                }
            ],
            "name": "safeTransferFrom",
            "outputs": [],
            "stateMutability": "nonpayable",
            "type": "function"
        },
        {
            "inputs": [
                {
                    "internalType": "address",
                    "name": "from",
                    "type": "address"
                },
                {
                    "internalType": "address",
                    "name": "to",
                    "type": "address"
                },
                {
                    "internalType": "uint256",
                    "name": "tokenId",
                    "type": "uint256"
                },
                {
                    "internalType": "bytes",
                    "name": "data",
                    "type": "bytes"
                }
            ],
            "name": "safeTransferFrom",
            "outputs": [],
            "stateMutability": "nonpayable",
            "type": "function"
        },
        {
            "inputs": [
                {
                    "internalType": "address",
                    "name": "operator",
                    "type": "address"
                },
                {
                    "internalType": "bool",
                    "name": "approved",
                    "type": "bool"
                }
            ],
            "name": "setApprovalForAll",
            "outputs": [],
            "stateMutability": "nonpayable",
            "type": "function"
        },
        {
            "inputs": [
                {
                    "internalType": "string",
                    "name": "baseTokenUri_",
                    "type": "string"
                }
            ],
            "name": "setBaseTokenUri",
            "outputs": [],
            "stateMutability": "nonpayable",
            "type": "function"
        },
        {
            "inputs": [
                {
                    "internalType": "bool",
                    "name": "isPublicMintEnabled_",
                    "type": "bool"
                }
            ],
            "name": "setIsPublicMintEnabled",
            "outputs": [],
            "stateMutability": "nonpayable",
            "type": "function"
        },
        {
            "inputs": [
                {
                    "internalType": "bytes4",
                    "name": "interfaceId",
                    "type": "bytes4"
                }
            ],
            "name": "supportsInterface",
            "outputs": [
                {
                    "internalType": "bool",
                    "name": "",
                    "type": "bool"
                }
            ],
            "stateMutability": "view",
            "type": "function"
        },
        {
            "inputs": [],
            "name": "symbol",
            "outputs": [
                {
                    "internalType": "string",
                    "name": "",
                    "type": "string"
                }
            ],
            "stateMutability": "view",
            "type": "function"
        },
        {
            "inputs": [
                {
                    "internalType": "uint256",
                    "name": "tokenId_",
                    "type": "uint256"
                }
            ],
            "name": "tokenURI",
            "outputs": [
                {
                    "internalType": "string",
                    "name": "",
                    "type": "string"
                }
            ],
            "stateMutability": "view",
            "type": "function"
        },
        {
            "inputs": [],
            "name": "totalSupply",
            "outputs": [
                {
                    "internalType": "uint16",
                    "name": "",
                    "type": "uint16"
                }
            ],
            "stateMutability": "view",
            "type": "function"
        },
        {
            "inputs": [
                {
                    "internalType": "address",
                    "name": "from",
                    "type": "address"
                },
                {
                    "internalType": "address",
                    "name": "to",
                    "type": "address"
                },
                {
                    "internalType": "uint256",
                    "name": "tokenId",
                    "type": "uint256"
                }
            ],
            "name": "transferFrom",
            "outputs": [],
            "stateMutability": "nonpayable",
            "type": "function"
        },
        {
            "inputs": [
                {
                    "internalType": "address",
                    "name": "newOwner",
                    "type": "address"
                }
            ],
            "name": "transferOwnership",
            "outputs": [],
            "stateMutability": "nonpayable",
            "type": "function"
        },
        {
            "inputs": [
                {
                    "internalType": "address",
                    "name": "",
                    "type": "address"
                }
            ],
            "name": "walletMints",
            "outputs": [
                {
                    "internalType": "uint256",
                    "name": "",
                    "type": "uint256"
                }
            ],
            "stateMutability": "view",
            "type": "function"
        },
        {
            "inputs": [],
            "name": "withdraw",
            "outputs": [],
            "stateMutability": "nonpayable",
            "type": "function"
        },
        {
            "inputs": [],
            "name": "withdrawWallet",
            "outputs": [
                {
                    "internalType": "address payable",
                    "name": "",
                    "type": "address"
                }
            ],
            "stateMutability": "view",
            "type": "function"
        }
    ],
    "bytecode": "0x60806040526040518060400160405280600881526020017f436869636b4e46540000000000000000000000000000000000000000000000008152506040518060400160405280600281526020017f434b00000000000000000000000000000000000000000000000000000000000081525081600090805190602001906200008892919062000242565b508060019080519060200190620000a192919062000242565b505050620000c4620000b86200017460201b60201c565b6200017c60201b60201c565b66470de4df8200006007819055506000600860006101000a81548161ffff021916908361ffff1602179055506103e8600860026101000a81548161ffff021916908361ffff1602179055506003600860046101000a81548161ffff021916908361ffff16021790555033600a60006101000a81548173ffffffffffffffffffffffffffffffffffffffff021916908373ffffffffffffffffffffffffffffffffffffffff16021790555062000357565b600033905090565b6000600660009054906101000a900473ffffffffffffffffffffffffffffffffffffffff16905081600660006101000a81548173ffffffffffffffffffffffffffffffffffffffff021916908373ffffffffffffffffffffffffffffffffffffffff1602179055508173ffffffffffffffffffffffffffffffffffffffff168173ffffffffffffffffffffffffffffffffffffffff167f8be0079c531659141344cd1fd0a4f28419497f9722a3daafe3b4186f6b6457e060405160405180910390a35050565b8280546200025090620002f2565b90600052602060002090601f016020900481019282620002745760008555620002c0565b82601f106200028f57805160ff1916838001178555620002c0565b82800160010185558215620002c0579182015b82811115620002bf578251825591602001919060010190620002a2565b5b509050620002cf9190620002d3565b5090565b5b80821115620002ee576000816000905550600101620002d4565b5090565b600060028204905060018216806200030b57607f821691505b6020821081141562000322576200032162000328565b5b50919050565b7f4e487b7100000000000000000000000000000000000000000000000000000000600052602260045260246000fd5b613a9980620003676000396000f3fe6080604052600436106101c25760003560e01c80636817c76c116100f7578063a0712d6811610095578063d5abeb0111610064578063d5abeb01146105f9578063e985e9c514610624578063f0293fd314610661578063f2fde38b1461069e576101c2565b8063a0712d681461054e578063a22cb4651461056a578063b88d4fde14610593578063c87b56dd146105bc576101c2565b806385d178f4116100d157806385d178f4146104a45780638da5cb5b146104cf57806395652cfa146104fa57806395d89b4114610523576101c2565b80636817c76c1461042557806370a0823114610450578063715018a61461048d576101c2565b806323b872dd11610164578063453c23101161013e578063453c23101461037d5780635a58cd4c146103a85780635ede942f146103bf5780636352211e146103e8576101c2565b806323b872dd146103145780633ccfd60b1461033d57806342842e0e14610354576101c2565b8063081812fc116101a0578063081812fc1461025a578063095ea7b31461029757806318160ddd146102c05780632373ac22146102eb576101c2565b80630116bc2d146101c757806301ffc9a7146101f257806306fdde031461022f575b600080fd5b3480156101d357600080fd5b506101dc6106c7565b6040516101e99190612e4d565b60405180910390f35b3480156101fe57600080fd5b5061021960048036038101906102149190612858565b6106da565b6040516102269190612e4d565b60405180910390f35b34801561023b57600080fd5b506102446107bc565b6040516102519190612e68565b60405180910390f35b34801561026657600080fd5b50610281600480360381019061027c91906128ef565b61084e565b60405161028e9190612dcb565b60405180910390f35b3480156102a357600080fd5b506102be60048036038101906102b991906127f3565b610894565b005b3480156102cc57600080fd5b506102d56109ac565b6040516102e2919061310a565b60405180910390f35b3480156102f757600080fd5b50610312600480360381019061030d919061282f565b6109c0565b005b34801561032057600080fd5b5061033b600480360381019061033691906126ed565b6109e5565b005b34801561034957600080fd5b50610352610a45565b005b34801561036057600080fd5b5061037b600480360381019061037691906126ed565b610b1e565b005b34801561038957600080fd5b50610392610b3e565b60405161039f919061310a565b60405180910390f35b3480156103b457600080fd5b506103bd610b52565b005b3480156103cb57600080fd5b506103e660048036038101906103e19190612688565b610b95565b005b3480156103f457600080fd5b5061040f600480360381019061040a91906128ef565b610c51565b60405161041c9190612dcb565b60405180910390f35b34801561043157600080fd5b5061043a610cd8565b6040516104479190613125565b60405180910390f35b34801561045c57600080fd5b506104776004803603810190610472919061265f565b610cde565b6040516104849190613125565b60405180910390f35b34801561049957600080fd5b506104a2610d96565b005b3480156104b057600080fd5b506104b9610daa565b6040516104c69190612de6565b60405180910390f35b3480156104db57600080fd5b506104e4610dd0565b6040516104f19190612dcb565b60405180910390f35b34801561050657600080fd5b50610521600480360381019061051c91906128aa565b610dfa565b005b34801561052f57600080fd5b50610538610e18565b6040516105459190612e68565b60405180910390f35b610568600480360381019061056391906128ef565b610eaa565b005b34801561057657600080fd5b50610591600480360381019061058c91906127b7565b6110ec565b005b34801561059f57600080fd5b506105ba60048036038101906105b5919061273c565b611102565b005b3480156105c857600080fd5b506105e360048036038101906105de91906128ef565b611164565b6040516105f09190612e68565b60405180910390f35b34801561060557600080fd5b5061060e6111e0565b60405161061b919061310a565b60405180910390f35b34801561063057600080fd5b5061064b600480360381019061064691906126b1565b6111f4565b6040516106589190612e4d565b60405180910390f35b34801561066d57600080fd5b506106886004803603810190610683919061265f565b611288565b6040516106959190613125565b60405180910390f35b3480156106aa57600080fd5b506106c560048036038101906106c0919061265f565b6112a0565b005b600860069054906101000a900460ff1681565b60007f80ac58cd000000000000000000000000000000000000000000000000000000007bffffffffffffffffffffffffffffffffffffffffffffffffffffffff1916827bffffffffffffffffffffffffffffffffffffffffffffffffffffffff191614806107a557507f5b5e139f000000000000000000000000000000000000000000000000000000007bffffffffffffffffffffffffffffffffffffffffffffffffffffffff1916827bffffffffffffffffffffffffffffffffffffffffffffffffffffffff1916145b806107b557506107b482611324565b5b9050919050565b6060600080546107cb906133eb565b80601f01602080910402602001604051908101604052809291908181526020018280546107f7906133eb565b80156108445780601f1061081957610100808354040283529160200191610844565b820191906000526020600020905b81548152906001019060200180831161082757829003601f168201915b5050505050905090565b60006108598261138e565b6004600083815260200190815260200160002060009054906101000a900473ffffffffffffffffffffffffffffffffffffffff169050919050565b600061089f82610c51565b90508073ffffffffffffffffffffffffffffffffffffffff168373ffffffffffffffffffffffffffffffffffffffff161415610910576040517f08c379a00000000000000000000000000000000000000000000000000000000081526004016109079061308a565b60405180910390fd5b8073ffffffffffffffffffffffffffffffffffffffff1661092f6113d9565b73ffffffffffffffffffffffffffffffffffffffff16148061095e575061095d816109586113d9565b6111f4565b5b61099d576040517f08c379a0000000000000000000000000000000000000000000000000000000008152600401610994906130aa565b60405180910390fd5b6109a783836113e1565b505050565b600860009054906101000a900461ffff1681565b6109c861149a565b80600860066101000a81548160ff02191690831515021790555050565b6109f66109f06113d9565b82611518565b610a35576040517f08c379a0000000000000000000000000000000000000000000000000000000008152600401610a2c90612eaa565b60405180910390fd5b610a408383836115ad565b505050565b610a4d61149a565b6000600a60009054906101000a900473ffffffffffffffffffffffffffffffffffffffff1673ffffffffffffffffffffffffffffffffffffffff1647604051610a9590612db6565b60006040518083038185875af1925050503d8060008114610ad2576040519150601f19603f3d011682016040523d82523d6000602084013e610ad7565b606091505b5050905080610b1b576040517f08c379a0000000000000000000000000000000000000000000000000000000008152600401610b12906130ea565b60405180910390fd5b50565b610b3983838360405180602001604052806000815250611102565b505050565b600860049054906101000a900461ffff1681565b610b5a61149a565b600a60009054906101000a900473ffffffffffffffffffffffffffffffffffffffff1673ffffffffffffffffffffffffffffffffffffffff16ff5b610b9d61149a565b600073ffffffffffffffffffffffffffffffffffffffff168173ffffffffffffffffffffffffffffffffffffffff161415610c0d576040517f08c379a0000000000000000000000000000000000000000000000000000000008152600401610c0490612eca565b60405180910390fd5b80600a60006101000a81548173ffffffffffffffffffffffffffffffffffffffff021916908373ffffffffffffffffffffffffffffffffffffffff16021790555050565b600080610c5d836118a7565b9050600073ffffffffffffffffffffffffffffffffffffffff168173ffffffffffffffffffffffffffffffffffffffff161415610ccf576040517f08c379a0000000000000000000000000000000000000000000000000000000008152600401610cc69061306a565b60405180910390fd5b80915050919050565b60075481565b60008073ffffffffffffffffffffffffffffffffffffffff168273ffffffffffffffffffffffffffffffffffffffff161415610d4f576040517f08c379a0000000000000000000000000000000000000000000000000000000008152600401610d4690612fea565b60405180910390fd5b600360008373ffffffffffffffffffffffffffffffffffffffff1673ffffffffffffffffffffffffffffffffffffffff168152602001908152602001600020549050919050565b610d9e61149a565b610da860006118e4565b565b600a60009054906101000a900473ffffffffffffffffffffffffffffffffffffffff1681565b6000600660009054906101000a900473ffffffffffffffffffffffffffffffffffffffff16905090565b610e0261149a565b818160099190610e1392919061248c565b505050565b606060018054610e27906133eb565b80601f0160208091040260200160405190810160405280929190818152602001828054610e53906133eb565b8015610ea05780601f10610e7557610100808354040283529160200191610ea0565b820191906000526020600020905b815481529060010190602001808311610e8357829003601f168201915b5050505050905090565b600860069054906101000a900460ff16610ef9576040517f08c379a0000000000000000000000000000000000000000000000000000000008152600401610ef090612f0a565b60405180910390fd5b60075481610f079190613287565b3414610f48576040517f08c379a0000000000000000000000000000000000000000000000000000000008152600401610f3f90612e8a565b60405180910390fd5b600860029054906101000a900461ffff1661ffff1681600860009054906101000a900461ffff1661ffff16610f7d9190613231565b1115610fbe576040517f08c379a0000000000000000000000000000000000000000000000000000000008152600401610fb590612fca565b60405180910390fd5b600860029054906101000a900461ffff1661ffff1681600b60003373ffffffffffffffffffffffffffffffffffffffff1673ffffffffffffffffffffffffffffffffffffffff1681526020019081526020016000205461101e9190613231565b111561105f576040517f08c379a00000000000000000000000000000000000000000000000000000000081526004016110569061302a565b60405180910390fd5b60005b818110156110e85760006001600860009054906101000a900461ffff1661108991906131f9565b61ffff1690506008600081819054906101000a900461ffff16809291906110af9061344e565b91906101000a81548161ffff021916908361ffff160217905550506110d433826119aa565b5080806110e090613479565b915050611062565b5050565b6110fe6110f76113d9565b83836119c8565b5050565b61111361110d6113d9565b83611518565b611152576040517f08c379a000000000000000000000000000000000000000000000000000000000815260040161114990612eaa565b60405180910390fd5b61115e84848484611b35565b50505050565b606061116f82611b91565b6111ae576040517f08c379a00000000000000000000000000000000000000000000000000000000081526004016111a5906130ca565b60405180910390fd5b60096111b983611bd2565b6040516020016111ca929190612d87565b6040516020818303038152906040529050919050565b600860029054906101000a900461ffff1681565b6000600560008473ffffffffffffffffffffffffffffffffffffffff1673ffffffffffffffffffffffffffffffffffffffff16815260200190815260200160002060008373ffffffffffffffffffffffffffffffffffffffff1673ffffffffffffffffffffffffffffffffffffffff16815260200190815260200160002060009054906101000a900460ff16905092915050565b600b6020528060005260406000206000915090505481565b6112a861149a565b600073ffffffffffffffffffffffffffffffffffffffff168173ffffffffffffffffffffffffffffffffffffffff161415611318576040517f08c379a000000000000000000000000000000000000000000000000000000000815260040161130f90612f2a565b60405180910390fd5b611321816118e4565b50565b60007f01ffc9a7000000000000000000000000000000000000000000000000000000007bffffffffffffffffffffffffffffffffffffffffffffffffffffffff1916827bffffffffffffffffffffffffffffffffffffffffffffffffffffffff1916149050919050565b61139781611b91565b6113d6576040517f08c379a00000000000000000000000000000000000000000000000000000000081526004016113cd9061306a565b60405180910390fd5b50565b600033905090565b816004600083815260200190815260200160002060006101000a81548173ffffffffffffffffffffffffffffffffffffffff021916908373ffffffffffffffffffffffffffffffffffffffff160217905550808273ffffffffffffffffffffffffffffffffffffffff1661145483610c51565b73ffffffffffffffffffffffffffffffffffffffff167f8c5be1e5ebec7d5bd14f71427d1e84f3dd0314c0f7b2291e5b200ac8c7c3b92560405160405180910390a45050565b6114a26113d9565b73ffffffffffffffffffffffffffffffffffffffff166114c0610dd0565b73ffffffffffffffffffffffffffffffffffffffff1614611516576040517f08c379a000000000000000000000000000000000000000000000000000000000815260040161150d9061304a565b60405180910390fd5b565b60008061152483610c51565b90508073ffffffffffffffffffffffffffffffffffffffff168473ffffffffffffffffffffffffffffffffffffffff161480611566575061156581856111f4565b5b806115a457508373ffffffffffffffffffffffffffffffffffffffff1661158c8461084e565b73ffffffffffffffffffffffffffffffffffffffff16145b91505092915050565b8273ffffffffffffffffffffffffffffffffffffffff166115cd82610c51565b73ffffffffffffffffffffffffffffffffffffffff1614611623576040517f08c379a000000000000000000000000000000000000000000000000000000000815260040161161a90612f4a565b60405180910390fd5b600073ffffffffffffffffffffffffffffffffffffffff168273ffffffffffffffffffffffffffffffffffffffff161415611693576040517f08c379a000000000000000000000000000000000000000000000000000000000815260040161168a90612f8a565b60405180910390fd5b6116a08383836001611cf6565b8273ffffffffffffffffffffffffffffffffffffffff166116c082610c51565b73ffffffffffffffffffffffffffffffffffffffff1614611716576040517f08c379a000000000000000000000000000000000000000000000000000000000815260040161170d90612f4a565b60405180910390fd5b6004600082815260200190815260200160002060006101000a81549073ffffffffffffffffffffffffffffffffffffffff02191690556001600360008573ffffffffffffffffffffffffffffffffffffffff1673ffffffffffffffffffffffffffffffffffffffff168152602001908152602001600020600082825403925050819055506001600360008473ffffffffffffffffffffffffffffffffffffffff1673ffffffffffffffffffffffffffffffffffffffff16815260200190815260200160002060008282540192505081905550816002600083815260200190815260200160002060006101000a81548173ffffffffffffffffffffffffffffffffffffffff021916908373ffffffffffffffffffffffffffffffffffffffff160217905550808273ffffffffffffffffffffffffffffffffffffffff168473ffffffffffffffffffffffffffffffffffffffff167fddf252ad1be2c89b69c2b068fc378daa952ba7f163c4a11628f55a4df523b3ef60405160405180910390a46118a28383836001611e1c565b505050565b60006002600083815260200190815260200160002060009054906101000a900473ffffffffffffffffffffffffffffffffffffffff169050919050565b6000600660009054906101000a900473ffffffffffffffffffffffffffffffffffffffff16905081600660006101000a81548173ffffffffffffffffffffffffffffffffffffffff021916908373ffffffffffffffffffffffffffffffffffffffff1602179055508173ffffffffffffffffffffffffffffffffffffffff168173ffffffffffffffffffffffffffffffffffffffff167f8be0079c531659141344cd1fd0a4f28419497f9722a3daafe3b4186f6b6457e060405160405180910390a35050565b6119c4828260405180602001604052806000815250611e22565b5050565b8173ffffffffffffffffffffffffffffffffffffffff168373ffffffffffffffffffffffffffffffffffffffff161415611a37576040517f08c379a0000000000000000000000000000000000000000000000000000000008152600401611a2e90612faa565b60405180910390fd5b80600560008573ffffffffffffffffffffffffffffffffffffffff1673ffffffffffffffffffffffffffffffffffffffff16815260200190815260200160002060008473ffffffffffffffffffffffffffffffffffffffff1673ffffffffffffffffffffffffffffffffffffffff16815260200190815260200160002060006101000a81548160ff0219169083151502179055508173ffffffffffffffffffffffffffffffffffffffff168373ffffffffffffffffffffffffffffffffffffffff167f17307eab39ab6107e8899845ad3d59bd9653f200f220920489ca2b5937696c3183604051611b289190612e4d565b60405180910390a3505050565b611b408484846115ad565b611b4c84848484611e7d565b611b8b576040517f08c379a0000000000000000000000000000000000000000000000000000000008152600401611b8290612eea565b60405180910390fd5b50505050565b60008073ffffffffffffffffffffffffffffffffffffffff16611bb3836118a7565b73ffffffffffffffffffffffffffffffffffffffff1614159050919050565b606060006001611be184612014565b01905060008167ffffffffffffffff811115611c26577f4e487b7100000000000000000000000000000000000000000000000000000000600052604160045260246000fd5b6040519080825280601f01601f191660200182016040528015611c585781602001600182028036833780820191505090505b509050600082602001820190505b600115611ceb578080600190039150507f3031323334353637383961626364656600000000000000000000000000000000600a86061a8153600a8581611cd5577f4e487b7100000000000000000000000000000000000000000000000000000000600052601260045260246000fd5b0494506000851415611ce657611ceb565b611c66565b819350505050919050565b6001811115611e1657600073ffffffffffffffffffffffffffffffffffffffff168473ffffffffffffffffffffffffffffffffffffffff1614611d8a5780600360008673ffffffffffffffffffffffffffffffffffffffff1673ffffffffffffffffffffffffffffffffffffffff1681526020019081526020016000206000828254611d8291906132e1565b925050819055505b600073ffffffffffffffffffffffffffffffffffffffff168373ffffffffffffffffffffffffffffffffffffffff1614611e155780600360008573ffffffffffffffffffffffffffffffffffffffff1673ffffffffffffffffffffffffffffffffffffffff1681526020019081526020016000206000828254611e0d9190613231565b925050819055505b5b50505050565b50505050565b611e2c838361224b565b611e396000848484611e7d565b611e78576040517f08c379a0000000000000000000000000000000000000000000000000000000008152600401611e6f90612eea565b60405180910390fd5b505050565b6000611e9e8473ffffffffffffffffffffffffffffffffffffffff16612469565b15612007578373ffffffffffffffffffffffffffffffffffffffff1663150b7a02611ec76113d9565b8786866040518563ffffffff1660e01b8152600401611ee99493929190612e01565b602060405180830381600087803b158015611f0357600080fd5b505af1925050508015611f3457506040513d601f19601f82011682018060405250810190611f319190612881565b60015b611fb7573d8060008114611f64576040519150601f19603f3d011682016040523d82523d6000602084013e611f69565b606091505b50600081511415611faf576040517f08c379a0000000000000000000000000000000000000000000000000000000008152600401611fa690612eea565b60405180910390fd5b805181602001fd5b63150b7a0260e01b7bffffffffffffffffffffffffffffffffffffffffffffffffffffffff1916817bffffffffffffffffffffffffffffffffffffffffffffffffffffffff19161491505061200c565b600190505b949350505050565b600080600090507a184f03e93ff9f4daa797ed6e38ed64bf6a1f0100000000000000008310612098577a184f03e93ff9f4daa797ed6e38ed64bf6a1f010000000000000000838161208e577f4e487b7100000000000000000000000000000000000000000000000000000000600052601260045260246000fd5b0492506040810190505b6d04ee2d6d415b85acef810000000083106120fb576d04ee2d6d415b85acef810000000083816120f1577f4e487b7100000000000000000000000000000000000000000000000000000000600052601260045260246000fd5b0492506020810190505b662386f26fc10000831061215057662386f26fc100008381612146577f4e487b7100000000000000000000000000000000000000000000000000000000600052601260045260246000fd5b0492506010810190505b6305f5e100831061219f576305f5e1008381612195577f4e487b7100000000000000000000000000000000000000000000000000000000600052601260045260246000fd5b0492506008810190505b61271083106121ea5761271083816121e0577f4e487b7100000000000000000000000000000000000000000000000000000000600052601260045260246000fd5b0492506004810190505b606483106122335760648381612229577f4e487b7100000000000000000000000000000000000000000000000000000000600052601260045260246000fd5b0492506002810190505b600a8310612242576001810190505b80915050919050565b600073ffffffffffffffffffffffffffffffffffffffff168273ffffffffffffffffffffffffffffffffffffffff1614156122bb576040517f08c379a00000000000000000000000000000000000000000000000000000000081526004016122b29061300a565b60405180910390fd5b6122c481611b91565b15612304576040517f08c379a00000000000000000000000000000000000000000000000000000000081526004016122fb90612f6a565b60405180910390fd5b612312600083836001611cf6565b61231b81611b91565b1561235b576040517f08c379a000000000000000000000000000000000000000000000000000000000815260040161235290612f6a565b60405180910390fd5b6001600360008473ffffffffffffffffffffffffffffffffffffffff1673ffffffffffffffffffffffffffffffffffffffff16815260200190815260200160002060008282540192505081905550816002600083815260200190815260200160002060006101000a81548173ffffffffffffffffffffffffffffffffffffffff021916908373ffffffffffffffffffffffffffffffffffffffff160217905550808273ffffffffffffffffffffffffffffffffffffffff16600073ffffffffffffffffffffffffffffffffffffffff167fddf252ad1be2c89b69c2b068fc378daa952ba7f163c4a11628f55a4df523b3ef60405160405180910390a4612465600083836001611e1c565b5050565b6000808273ffffffffffffffffffffffffffffffffffffffff163b119050919050565b828054612498906133eb565b90600052602060002090601f0160209004810192826124ba5760008555612501565b82601f106124d357803560ff1916838001178555612501565b82800160010185558215612501579182015b828111156125005782358255916020019190600101906124e5565b5b50905061250e9190612512565b5090565b5b8082111561252b576000816000905550600101612513565b5090565b600061254261253d84613165565b613140565b90508281526020810184848401111561255a57600080fd5b6125658482856133a9565b509392505050565b60008135905061257c816139f0565b92915050565b60008135905061259181613a07565b92915050565b6000813590506125a681613a1e565b92915050565b6000813590506125bb81613a35565b92915050565b6000815190506125d081613a35565b92915050565b600082601f8301126125e757600080fd5b81356125f784826020860161252f565b91505092915050565b60008083601f84011261261257600080fd5b8235905067ffffffffffffffff81111561262b57600080fd5b60208301915083600182028301111561264357600080fd5b9250929050565b60008135905061265981613a4c565b92915050565b60006020828403121561267157600080fd5b600061267f8482850161256d565b91505092915050565b60006020828403121561269a57600080fd5b60006126a884828501612582565b91505092915050565b600080604083850312156126c457600080fd5b60006126d28582860161256d565b92505060206126e38582860161256d565b9150509250929050565b60008060006060848603121561270257600080fd5b60006127108682870161256d565b93505060206127218682870161256d565b92505060406127328682870161264a565b9150509250925092565b6000806000806080858703121561275257600080fd5b60006127608782880161256d565b94505060206127718782880161256d565b93505060406127828782880161264a565b925050606085013567ffffffffffffffff81111561279f57600080fd5b6127ab878288016125d6565b91505092959194509250565b600080604083850312156127ca57600080fd5b60006127d88582860161256d565b92505060206127e985828601612597565b9150509250929050565b6000806040838503121561280657600080fd5b60006128148582860161256d565b92505060206128258582860161264a565b9150509250929050565b60006020828403121561284157600080fd5b600061284f84828501612597565b91505092915050565b60006020828403121561286a57600080fd5b6000612878848285016125ac565b91505092915050565b60006020828403121561289357600080fd5b60006128a1848285016125c1565b91505092915050565b600080602083850312156128bd57600080fd5b600083013567ffffffffffffffff8111156128d757600080fd5b6128e385828601612600565b92509250509250929050565b60006020828403121561290157600080fd5b600061290f8482850161264a565b91505092915050565b61292181613327565b82525050565b61293081613315565b82525050565b61293f81613339565b82525050565b6000612950826131ab565b61295a81856131c1565b935061296a8185602086016133b8565b6129738161354f565b840191505092915050565b6000612989826131b6565b61299381856131dd565b93506129a38185602086016133b8565b6129ac8161354f565b840191505092915050565b60006129c2826131b6565b6129cc81856131ee565b93506129dc8185602086016133b8565b80840191505092915050565b600081546129f5816133eb565b6129ff81866131ee565b94506001821660008114612a1a5760018114612a2b57612a5e565b60ff19831686528186019350612a5e565b612a3485613196565b60005b83811015612a5657815481890152600182019150602081019050612a37565b838801955050505b50505092915050565b6000612a746010836131dd565b9150612a7f82613560565b602082019050919050565b6000612a97602d836131dd565b9150612aa282613589565b604082019050919050565b6000612aba600f836131dd565b9150612ac5826135d8565b602082019050919050565b6000612add6032836131dd565b9150612ae882613601565b604082019050919050565b6000612b006013836131dd565b9150612b0b82613650565b602082019050919050565b6000612b236026836131dd565b9150612b2e82613679565b604082019050919050565b6000612b466025836131dd565b9150612b51826136c8565b604082019050919050565b6000612b69601c836131dd565b9150612b7482613717565b602082019050919050565b6000612b8c6024836131dd565b9150612b9782613740565b604082019050919050565b6000612baf6019836131dd565b9150612bba8261378f565b602082019050919050565b6000612bd26008836131dd565b9150612bdd826137b8565b602082019050919050565b6000612bf56029836131dd565b9150612c00826137e1565b604082019050919050565b6000612c186020836131dd565b9150612c2382613830565b602082019050919050565b6000612c3b6005836131ee565b9150612c4682613859565b600582019050919050565b6000612c5e6011836131dd565b9150612c6982613882565b602082019050919050565b6000612c816020836131dd565b9150612c8c826138ab565b602082019050919050565b6000612ca46018836131dd565b9150612caf826138d4565b602082019050919050565b6000612cc76021836131dd565b9150612cd2826138fd565b604082019050919050565b6000612cea6000836131d2565b9150612cf58261394c565b600082019050919050565b6000612d0d603d836131dd565b9150612d188261394f565b604082019050919050565b6000612d306015836131dd565b9150612d3b8261399e565b602082019050919050565b6000612d53600f836131dd565b9150612d5e826139c7565b602082019050919050565b612d7281613371565b82525050565b612d818161339f565b82525050565b6000612d9382856129e8565b9150612d9f82846129b7565b9150612daa82612c2e565b91508190509392505050565b6000612dc182612cdd565b9150819050919050565b6000602082019050612de06000830184612927565b92915050565b6000602082019050612dfb6000830184612918565b92915050565b6000608082019050612e166000830187612927565b612e236020830186612927565b612e306040830185612d78565b8181036060830152612e428184612945565b905095945050505050565b6000602082019050612e626000830184612936565b92915050565b60006020820190508181036000830152612e82818461297e565b905092915050565b60006020820190508181036000830152612ea381612a67565b9050919050565b60006020820190508181036000830152612ec381612a8a565b9050919050565b60006020820190508181036000830152612ee381612aad565b9050919050565b60006020820190508181036000830152612f0381612ad0565b9050919050565b60006020820190508181036000830152612f2381612af3565b9050919050565b60006020820190508181036000830152612f4381612b16565b9050919050565b60006020820190508181036000830152612f6381612b39565b9050919050565b60006020820190508181036000830152612f8381612b5c565b9050919050565b60006020820190508181036000830152612fa381612b7f565b9050919050565b60006020820190508181036000830152612fc381612ba2565b9050919050565b60006020820190508181036000830152612fe381612bc5565b9050919050565b6000602082019050818103600083015261300381612be8565b9050919050565b6000602082019050818103600083015261302381612c0b565b9050919050565b6000602082019050818103600083015261304381612c51565b9050919050565b6000602082019050818103600083015261306381612c74565b9050919050565b6000602082019050818103600083015261308381612c97565b9050919050565b600060208201905081810360008301526130a381612cba565b9050919050565b600060208201905081810360008301526130c381612d00565b9050919050565b600060208201905081810360008301526130e381612d23565b9050919050565b6000602082019050818103600083015261310381612d46565b9050919050565b600060208201905061311f6000830184612d69565b92915050565b600060208201905061313a6000830184612d78565b92915050565b600061314a61315b565b9050613156828261341d565b919050565b6000604051905090565b600067ffffffffffffffff8211156131805761317f613520565b5b6131898261354f565b9050602081019050919050565b60008190508160005260206000209050919050565b600081519050919050565b600081519050919050565b600082825260208201905092915050565b600081905092915050565b600082825260208201905092915050565b600081905092915050565b600061320482613371565b915061320f83613371565b92508261ffff03821115613226576132256134c2565b5b828201905092915050565b600061323c8261339f565b91506132478361339f565b9250827fffffffffffffffffffffffffffffffffffffffffffffffffffffffffffffffff0382111561327c5761327b6134c2565b5b828201905092915050565b60006132928261339f565b915061329d8361339f565b9250817fffffffffffffffffffffffffffffffffffffffffffffffffffffffffffffffff04831182151516156132d6576132d56134c2565b5b828202905092915050565b60006132ec8261339f565b91506132f78361339f565b92508282101561330a576133096134c2565b5b828203905092915050565b60006133208261337f565b9050919050565b60006133328261337f565b9050919050565b60008115159050919050565b60007fffffffff0000000000000000000000000000000000000000000000000000000082169050919050565b600061ffff82169050919050565b600073ffffffffffffffffffffffffffffffffffffffff82169050919050565b6000819050919050565b82818337600083830152505050565b60005b838110156133d65780820151818401526020810190506133bb565b838111156133e5576000848401525b50505050565b6000600282049050600182168061340357607f821691505b60208210811415613417576134166134f1565b5b50919050565b6134268261354f565b810181811067ffffffffffffffff8211171561344557613444613520565b5b80604052505050565b600061345982613371565b915061ffff82141561346e5761346d6134c2565b5b600182019050919050565b60006134848261339f565b91507fffffffffffffffffffffffffffffffffffffffffffffffffffffffffffffffff8214156134b7576134b66134c2565b5b600182019050919050565b7f4e487b7100000000000000000000000000000000000000000000000000000000600052601160045260246000fd5b7f4e487b7100000000000000000000000000000000000000000000000000000000600052602260045260246000fd5b7f4e487b7100000000000000000000000000000000000000000000000000000000600052604160045260246000fd5b6000601f19601f8301169050919050565b7f77726f6e67206d696e742076616c756500000000000000000000000000000000600082015250565b7f4552433732313a2063616c6c6572206973206e6f7420746f6b656e206f776e6560008201527f72206f7220617070726f76656400000000000000000000000000000000000000602082015250565b7f496e76616c696420616464726573730000000000000000000000000000000000600082015250565b7f4552433732313a207472616e7366657220746f206e6f6e20455243373231526560008201527f63656976657220696d706c656d656e7465720000000000000000000000000000602082015250565b7f6d696e74696e67206e6f7420656e61626c656400000000000000000000000000600082015250565b7f4f776e61626c653a206e6577206f776e657220697320746865207a65726f206160008201527f6464726573730000000000000000000000000000000000000000000000000000602082015250565b7f4552433732313a207472616e736665722066726f6d20696e636f72726563742060008201527f6f776e6572000000000000000000000000000000000000000000000000000000602082015250565b7f4552433732313a20746f6b656e20616c7265616479206d696e74656400000000600082015250565b7f4552433732313a207472616e7366657220746f20746865207a65726f2061646460008201527f7265737300000000000000000000000000000000000000000000000000000000602082015250565b7f4552433732313a20617070726f766520746f2063616c6c657200000000000000600082015250565b7f736f6c64206f7574000000000000000000000000000000000000000000000000600082015250565b7f4552433732313a2061646472657373207a65726f206973206e6f74206120766160008201527f6c6964206f776e65720000000000000000000000000000000000000000000000602082015250565b7f4552433732313a206d696e7420746f20746865207a65726f2061646472657373600082015250565b7f2e6a736f6e000000000000000000000000000000000000000000000000000000600082015250565b7f657863656564206d61782077616c6c6574000000000000000000000000000000600082015250565b7f4f776e61626c653a2063616c6c6572206973206e6f7420746865206f776e6572600082015250565b7f4552433732313a20696e76616c696420746f6b656e2049440000000000000000600082015250565b7f4552433732313a20617070726f76616c20746f2063757272656e74206f776e6560008201527f7200000000000000000000000000000000000000000000000000000000000000602082015250565b50565b7f4552433732313a20617070726f76652063616c6c6572206973206e6f7420746f60008201527f6b656e206f776e6572206f7220617070726f76656420666f7220616c6c000000602082015250565b7f546f6b656e20646f6573206e6f74206578697374210000000000000000000000600082015250565b7f7769746864726177206661696c65640000000000000000000000000000000000600082015250565b6139f981613315565b8114613a0457600080fd5b50565b613a1081613327565b8114613a1b57600080fd5b50565b613a2781613339565b8114613a3257600080fd5b50565b613a3e81613345565b8114613a4957600080fd5b50565b613a558161339f565b8114613a6057600080fd5b5056fea264697066735822122065600838e09b181735866d098c036dcffc20fe6897fb5747e2a0e40d3545209564736f6c63430008040033",
    "linkReferences": {},
    "deployedLinkReferences": {}
}